:020000040800F2
:10000000E0E502202D0200085D270008451E0008DB
:10001000312700085D1300082D4F00080000000084
:10002000000000000000000000000000E32F0008B6
:10003000AD1A00080000000043020008D136000895
:10004000470200084702000847020008470200086C
:10005000470200084702000847020008470200085C
:10006000470200084702000847020008470200084C
:10007000470200084702000847020008470200083C
:10008000470200084702000847020008470200082C
:1000900021490008470200084702000847020008FB
:1000A000470200084702000847020008470200080C
:1000B00047020008470200084702000847020008FC
:1000C00047020008470200084702000847020008EC
:1000D00047020008470200084702000847020008DC
:1000E00047020008470200082949000847020008A3
:1000F00047020008470200084702000847020008BC
:1001000047020008470200084702000847020008AB
:10011000A5410008470200084702000847020008FE
:10012000470200084702000847020008470200088B
:1001300047020008470200080000000047020008CC
:10014000470200084702000847020008470200086B
:10015000470200084702000847020008470200085B
:10016000470200084702000847020008453D000812
:10017000470200084702000800000000470200088C
:10018000470200080000000047020008470200087C
:10019000470200084702000847020008000000006C
:1001A00000000000470200080000000000000000FE
:1001B000000000000000000000000000000000003F
:1001C00000000000000000000000000047020008DE
:1001D00047020008470200084702000847020008DB
:1001E00047020008470200084702000847020008CB
:1001F00047020008470200084702000847020008BB
:1002000047020008470200084702000847020008AA
:100210004702000847020008DFF80CD000F0CCFCD1
:1002200000480047353C0108E0E5022006488047C9
:1002300006480047FEE7FEE7FEE7FEE7FEE7FEE7CB
:10024000FEE7FEE7FEE7FEE7D536000819020008E4
:100250002DE9F05F0546002092469B4688460646FB
:10026000814640241BE0284641464746224600F08E
:100270002FF853465A46C01A914110D311461846DA
:10028000224600F016F82D1A67EB01084F46224669
:100290000120002100F00DF817EB00094E41201E4F
:1002A000A4F10104DFDC484631462A464346BDE856
:1002B000F09F202A04DB203A00FA02F10020704768
:1002C0009140C2F1200320FA03F319439040704794
:1002D000202A04DB203A21FA02F00021704721FA9B
:1002E00002F3D040C2F12002914008431946704702
:1002F000202A06DBCB17203A41FA02F043EAE073EA
:1003000006E041FA02F3D040C2F1200291400843D6
:100310001946704710B5431A934209D283188818BA
:1003200003E010F8011D03F8011D521EF9D210BDA3
:1003300040EA01039B0703D009E008C9121F08C067
:10034000042AFAD203E011F8013B00F8013B521EE7
:10035000F9D210BDD2B201E000F8012B491EFBD248
:1003600070470022F6E710B513460A4604461946C0
:10037000FFF7F0FF204610BD30B505462A460B4674
:1003800012F8010B13F8014B08B1A042F8D01CB1D0
:10039000002802D06D1CF1E7284630BD421C10F841
:1003A000011B0029FBD1801A704770B5064605F085
:1003B00075F8046805460A220021304600F0C8FAA4
:1003C0002C6070BD2DE9FE4F804681EA0300C00F0E
:1003D0000C46009021F0004123F00045B8EB0200EC
:1003E000A94105D24046214690461C460B4602468E
:1003F00023F00040104347D0270DC7F30A00C3F392
:100400000A510290401A019040286BDAC3F313009E
:1004100040F4801B0098924620B10023D2EB030ADF
:1004200063EB0B0B01985946C0F140025046FFF7B1
:1004300040FF06460D4650465946019AFFF758FFC1
:1004400010EB08006141002487EA115284EAE77347
:100450001A4340D0009A62B3019A012A4FEA075228
:1004600015DC001B61EB02014FF0004202EA07526B
:10047000CDE90042001C41F5801132462B4600F0C8
:10048000E5FA03B0BDE8F08F40462146F9E7001BCE
:1004900061EB0201001C41F5801300185B4120183C
:1004A000A2F5001747EB030140EAD570B6196D417C
:1004B00011E06D084FEA360645EAC0754FEA07526B
:1004C000001B61EB0201001C41F5801149084FEA55
:1004D00030000019514132462B4603B0BDE8F04FC1
:1004E00000F0A5BA0098012240000023D0EB0202E0
:1004F00063EBE073009821464FEAE074B8EB00002C
:1005000061EB0401E9E783F000435BE781F0004120
:1005100058E72DE9FE4F81EA030404F0004421F07E
:10052000004100944FF0000B23F0004350EA010417
:100530005ED052EA03045BD0C3F30A54C1F30A55F8
:100540002C44A4F2F3340194A0FB0254C1F3130130
:1005500041F48011C3F3130343F4801301FB0244FD
:1005600000FB034E840A970A44EA815447EA835702
:10057000A4FB076802958D0A05FB07854FEA932CBB
:1005800004FB0C542705029D4FEA065847EA16372C
:10059000B5EB08056EEB070C870E920E47EA811744
:1005A00042EA8312A7FB0201B6EB0B0164EB0004E5
:1005B0002B0D43EA0C335E1844EB1C50DA465146CF
:1005C000E7FB0201C5F313044FEA0B3343EA14536C
:1005D0004FEA0432019C43EA0603A4F10C0402949E
:1005E000009CCDE900B400F031FA03B0BDE8F08F13
:1005F00000200146F9E72DE9F04D81EA030404F0FB
:10060000004B21F0004514464FF0000A23F0004152
:1006100050EA050220D054EA01021DD0C5F30A5762
:100620000246C5F31303C1F31300C1F30A5640F4A5
:10063000801543F48013A7EB0608101BD64608F27A
:10064000FD3873EB050002D308F1010801E09218B0
:100650005B41B8F1000F03DA00200146BDE8F08DE0
:1006600000204FF48011064684460EE0171B73EB02
:10067000050705D3121B63EB050306434CEA010C87
:1006800049084FEA300092185B4150EA0107EDD16A
:1006900052EA030012D082EA040083EA050108430B
:1006A00005D0101BAB4106D20122002306E0002238
:1006B0004FF0004302E06FF0010253101AEB060006
:1006C0004CEB085110EB0A0041EB0B01BDE8F04D7B
:1006D00000F0ADB90EB5C10F80EAE0700844CA075A
:1006E000002140F233438DE80E000A460B4600F02D
:1006F000ADF903B000BD0EB540F2334102910021C7
:10070000CDE900110A460B4600F0A0F903B000BD88
:1007100070B5C1F30A5201F000450024C1F3130182
:1007200040F2FF3341F480119A4201DA002070BD9B
:1007300040F233439A42A2F2334203DC5242FFF7C3
:10074000C7FD00E090402C43F1D0404270BDC1F3A2
:100750000A5210B5C1F3130140F2FF3341F4801186
:100760009A4201DA002010BD40F233439A42A2F2CD
:10077000334203DC5242FFF7ABFD10BD904010BD89
:1007800000F0004230F000400AD0C10D01F5607168
:10079000C0F3160042EA0151C208400711437047F6
:1007A000002001467047000030B5041E71F10004BE
:1007B00004DB4FF00044404264EB0101141E73F16E
:1007C000000405DB1C464FF00043524263EB040378
:1007D0008B4208BF824230BD30B5041E71F1000467
:1007E00004DB4FF00044404264EB0101141E73F13E
:1007F000000405DB1C464FF00043524263EB040348
:10080000994208BF904230BD01F0004330B421F05E
:10081000004150EA010206D00A0DA2F56072C1F350
:100820001301002A02DC30BC00207047440F44EA68
:10083000C104C100E01830BC00EBC25000F0C0B8E9
:1008400030B50B46014600202022012409E021FAA0
:1008500002F59D4205D303FA02F5491B04FA02F59D
:100860002844151EA2F10102F1DC30BD07280FD289
:10087000DFE800F00406080E0E0C0A0005A0704721
:100880000AA0704713A070471DA0704722A07047B0
:100890002BA070474E6F206572726F7220286572B0
:1008A000726E6F203D2030290000000045444F4DFE
:1008B000202D2066756E6374696F6E206172677596
:1008C0006D656E74206F7574206F662072616E673F
:1008D000650000004552414E4745202D2066756E4B
:1008E0006374696F6E20726573756C74206E6F74BB
:1008F00020726570726573656E7461626C6500006C
:10090000454E4F4D454D202D206F7574206F66204C
:100910006D656D6F7279000045494E56414C202D32
:1009200020696E76616C696420617267756D656EB1
:100930007420746F2066756E6374696F6E000000BA
:10094000556E6B6E6F776E206572726F720000006D
:100950002DE9F04791460F4680460446002614F8DC
:10096000015B2DB100F03AF90068405DC007F6D197
:100970002B2D02D02D2D18D0641E4A463946204614
:1009800000F030F927B13968A14201D1C7F80080E1
:1009900071054FF002040BD54042002803DD04F03E
:1009A0007DFD0460A007BDE8F08746F48066E4E7BB
:1009B0000028F8DA04F072FD04606FF00040F2E7FE
:1009C0000029A8BF7047401C490008BF20F0010063
:1009D000704710B4B0FA80FC00FA0CF050EA010441
:1009E00004BF10BC704749B1CCF1200421FA04F4D3
:1009F00011FA0CF118BF012121430843A3EB0C01AC
:100A0000CB1D4FEA00614FEA102042BF002010BC0E
:100A1000704700EBC35010440029A4BF10BC7047BE
:100A2000401C490008BF20F0010010BC704710B501
:100A3000141E73F1000408DA401C41F10001921801
:100A40005B411A4301D120F0010010BD2DE9F04DAA
:100A500092469B4611B1B1FA81F202E0B0FA80F2FF
:100A600020329046FFF725FC04460F4640EA0A0074
:100A700041EA0B0153465A46084313D0114653EA44
:100A8000010019D0C8F140025046FFF721FC05468D
:100A90000E46504659464246FFF70BFC084305D028
:100AA000012004E020463946BDE8F08D00200543D2
:100AB00046EAE0762C4337430A986305E40AA0EB44
:100AC00008000022FD0A44EA47540A3002D50020FB
:100AD0000146E9E7010510196941DDE908450019FA
:100AE0006941BDE8F04DA2E770B521F00043034332
:100AF0000CD0C1F30A550024D5EB040564EB0403C4
:100B0000D617AD1AB34102DB0020014670BD201894
:100B100041EB025170BD2DE9F04D00231A461B1A1E
:100B20008A4103DB00200146BDE8F08DC1F30A5283
:100B3000C1F3130141F480154FF0000BD10702D12E
:100B400000186D41521E0027044640F2FF1138463E
:100B500001EB620A3E468046024600204FF48011B7
:100B6000FFF7B6FBC2197141BB1846EB0100B4EBAD
:100B7000030C75EB000C04D3E41A65EB0005174673
:100B80000E46241908F101006D4180463428E3DD4A
:100B9000F91946EB0600091BA84103D24FF0FF32BA
:100BA000134601E0002213461BEB070046EB0A51F7
:100BB000BDE8F04DFFF73BBF064C074D06E0E0688F
:100BC00040F0010394E8070098471034AC42F6D394
:100BD000FFF726FBE80B0408080C040800487047E0
:100BE0004C0B04082DE9F05F82460078002715467B
:100BF0008B460AF10104B946302801D09DB113E0BB
:100C000014F8010B0127782803D0582801D045B1EA
:100C10000AE00DB1102D07D10027102514F8010BA3
:100C200002E0082500E00A250026B0460EE005FB9C
:100C3000080005FB06F1012701EB10461FFA80F8BA
:100C4000B6F5803F00D3B94614F8010B294600F0F1
:100C500018F80028EBDABBF1000F05D00FB1641EC5
:100C600000E05446CBF80040B9F1000F06D004F084
:100C700015FC02210160C81EBDE8F09F48EA06404D
:100C8000FAE73A2800D2303820F02002412A01D376
:100C9000A2F13700884201D34FF0FF30704770B5A2
:100CA0008C1810F8015B15F0070301D110F8013B17
:100CB0002A1106D110F8012B03E010F8016B01F89E
:100CC000016B5B1EF9D12B0705D40023521E0DD4F6
:100CD00001F8013BFAE710F8013BCB1A921C03E044
:100CE00013F8015B01F8015B521EF9D5A142D8D37C
:100CF000002070BD10B5012090490870002000F060
:100D00002FFB8FA003F032FA00208F4908700AE011
:100D10004FF4FA7032F062FC8B48007800B106E0C4
:100D200087A003F023FA884800780028F0D000BF9D
:100D300041F2883032F052FC002084490870824928
:100D4000087083A003F012FA0AE04FF4FA7032F050
:100D500045FC7D48007800B106E07DA003F006FA6E
:100D60007A4800780028F0D000BF78480078002842
:100D700079D17BA003F0FAF90020734908700AE0EA
:100D80004FF4FA7032F02AFC6F48007800B106E0A8
:100D900073A003F0EBF96C4800780028F0D000BF96
:100DA00073A003F0E3F90020674908700AE04FF4EC
:100DB000FA7032F013FC6448007800B106E06CA0D1
:100DC00003F0D4F9604800780028F0D000BF6CA090
:100DD00003F0CCF900205C4908700AE04FF4FA7087
:100DE00032F0FCFB5848007800B106E064A003F044
:100DF000BDF9554800780028F0D000BF6BA003F083
:100E0000B5F90020504908700AE04FF4FA7032F04A
:100E1000E5FB4D48007800B106E064A003F0A6F9B8
:100E2000494800780028F0D000BF64A003F09EF984
:100E30000020454908700AE04FF4FA7032F0CEFB0A
:100E40004148007800B106E05CA003F08FF93E480D
:100E500000780028F0D000BF00203C4908703CA07A
:100E600003F084F90BE00FE04FF4FA7032F0B6FBB8
:100E70003648007800B106E035A003F077F9334832
:100E800000780028F0D000BF00202F490870514999
:100E9000087051A003F06AF90AE04FF4FA7032F0DA
:100EA0009DFB2948007800B106E04BA003F05EF9F5
:100EB000254800780028F0D000BF46480078002878
:100EC00030D12149087048A003F050F90AE04FF4EE
:100ED000FA7032F083FB1C48007800B106E042A0B3
:100EE00003F044F9184800780028F0D000BF002033
:100EF000444908704FF4FA7032F070FB42A003F0DE
:100F000035F90AE04FF4FA7032F068FB3D4800789A
:100F100000B106E03CA003F029F93A480078002827
:100F2000F0D000BF002005490870012000F018FA39
:100F30004FF47A7032F052FB10BD00002C000020FC
:100F400041540D0A000000002D0000202F00002059
:100F500041542B435753544154453F0D0A00000060
:100F600041542B524553544F52450D0A0000000086
:100F700041542B43574D4F44453D330D0A0000006B
:100F800041542B43575341503D22414954616C6BAE
:100F90005F536F66744150222C2250554C414E22B3
:100FA0002C31312C302C330D0A00000041542B43DE
:100FB00049504D55583D310D0A00000041542B5702
:100FC00045425345525645523D312C38302C36302F
:100FD0000D0A00003000002041542B57534F50455C
:100FE0004E3F0D0A0000000041542B575343464723
:100FF0003D302C33302C3630302C343039360D0A1D
:10100000000000003100002041542B57534F504541
:101010004E3D302C2277733A2F2F352E3138312E1A
:101020003232352E343A32333533302F2F220D0AF7
:101030000000000030B52DED048B83B072480068CD
:1010400030B901207149087003B0BDEC048B30BD8C
:101050006F4801F0D1FC12280CDC6E480088002893
:1010600073DD6B4801F076FC00286ED16A48007889
:101070000028FAD100253DE0654801F072FC67497F
:10108000086000204FF47071CDE9001063480068DB
:10109000634BD0F8FC20614801685B48006813F09E
:1010A000B7FC604908605A4801F064FC5D4800687C
:1010B00000281EDD002419E0594931F91400FFF71A
:1010C00009FB41EC190B9FED580B53EC102BFFF76C
:1010D00020FA41EC180BFFF71BFB00B2C5EB051122
:1010E000534A02EBC11121F81400641CB4F5707F5F
:1010F000E2DB6D1C022DBFDB00204E4908704FF46F
:1011000070714D4800F0B2FA01214B4800F05CFAD2
:1011100072E000BF48491439202000F064FA00282A
:10112000F8D045491439202000F065F900214248E3
:1011300000F04AFA3F480078404908703D4800787E
:1011400020B901203B49087003E05AE000203949EA
:10115000087038490978C1EB0111354A02EBC1101A
:101160004FF4707101F060FE4FF47071324800F07E
:101170007DFA0121304800F027FA254801F0F1FB03
:101180002649086000204FF47071CDE90010234813
:101190000068234BD0F8FC20204801681A480068FA
:1011A00013F036FC1F490860194801F0E3FB1D48A5
:1011B0000068002820DD00241BE0194931F91400E3
:1011C000FFF788FA41EC190B9FED170B53EC102B2E
:1011D000FFF79FF941EC180BFFF79AFA00B2174995
:1011E0000978C1EB0111124A02EBC11121F8140078
:1011F000641CB4F5707FE0DB054801F0ABFB002810
:1012000087D000BF20E70000280000202E0000202B
:101210000C53002012000020330000203400002076
:10122000BC3B002020000020333333333333C33F33
:10123000BC2C002004000020140402400500002003
:1012400070B5C0B004460D46344801F083FB002859
:101250005FD03348007800285BD10026C4EB04112E
:10126000890101FB05F01EE02E4931F91010C1EB98
:1012700001112D4A116011460968B1F5004F02DBDA
:1012800047F6FF7111602849096811F5004F02DC2B
:101290002649254A11602449098809B2244A22F8BE
:1012A0001610761C801C611CC1EB01118901694379
:1012B0008142D9DC4FF470701E4B02461C490090ED
:1012C0001D48006814F092FB1C490860084600683D
:1012D00000281DDD08461AA10268684604F0B2F82D
:1012E00000201C490870684602F040FF41F2883037
:1012F00004F084F840B1022032F070F90F48016820
:101300000C4802F065FF02E001201349087000BF9D
:1013100002E0032000F024F840B070BD0C53002020
:1013200033000020900D0020000000200180FFFF0E
:1013300050020020D0090020240000201C000020C2
:1013400041542B575353454E443D302C25642C3289
:101350000D0A0000320000202E00002000BFFEE732
:1013600010B5044617480078A04229D015480470EB
:101370002CB9FF221146104603F0E2FF1EE0012CBB
:1013800005D1FF220021084603F0DAFF16E0022C07
:1013900005D10022FF21104603F0D2FF0EE0032CFE
:1013A00005D100221146FF2003F0CAFF06E0042CFD
:1013B00004D100221146104603F0C2FF03F08CFF57
:1013C00010BD0000140000200146B1F1807F01D360
:1013D0000120704721F07F40401E4FF0E022506115
:1013E00000209061052010611046006920F0020085
:1013F00010610020EDE7C1F8A00070471AB1036842
:101400000B43036002E003688B43036070470000F6
:10141000016821F00101016000210160016181602A
:1014200041606749884208D16549A031096841F0A7
:101430000F010246C2F8A010C0E061491431884291
:1014400008D15F49A031096841F0F0015C4AC2F857
:10145000A010B3E05A492831884208D15849A03138
:10146000096841F47061564AC2F8A010A6E05449D8
:101470003C31884208D15249A031096841F4704199
:101480004F4AC2F8A01099E04D495031884208D126
:101490004B49A031096841F47021494AC2F8A010B3
:1014A0008CE047496431884208D14549A031096838
:1014B00041F47001424AC2F8A0107FE040497831FF
:1014C000884208D13E49A031096841F070613C4A28
:1014D000C2F8A01072E03A498C31884208D13849EC
:1014E000A031096841F07041354AC2F8A01065E0AA
:1014F0003449884208D13349A031096841F00F01CD
:10150000304AA032116059E02E491431884208D186
:101510002C49A031096841F0F0012A4AA03211603B
:101520004CE028492831884208D12649A031096871
:1015300041F47061234AA03211603FE021493C31FF
:10154000884208D11F49A031096841F470411D4A01
:10155000A032116032E01B495031884208D119494C
:10156000A031096841F47021164AA032116025E0CB
:1015700014496431884208D11249A031096841F404
:101580007001104AA032116018E00E49783188428B
:1015900008D10C49A031096841F07061094AA032B4
:1015A00011600BE007498C31884207D10549A03111
:1015B000096841F07041034AA03211607047000091
:1015C000000002400004024021B1026842F0010222
:1015D000026003E0026822F00102026070470146E7
:1015E000086980B2704710B50246D1F8A43003EA0A
:1015F00002040CB1012000E0002010BD10B502680B
:10160000144B1A400C6A8B6823430C6923434C69C2
:1016100023438C692343CC6923434C6A23438C6A5C
:1016200023430C6B23434C6B23431A430260CB6868
:1016300003610B6883604B684360074B984203D299
:10164000064CCB6A236003E0034CA834CB6A2360CA
:1016500010BD00000F00F8FF00040240A800024087
:101660000AB1C86001E00023CB6070470161704798
:101670000021016041608160C1600161416181615F
:10168000C1610162416281620121C1620021016385
:10169000416370472DE9F0472A48006800F11005C2
:1016A0002E8828480068077AF6B9042F1CD12648EE
:1016B0000078012812D100212448006880B2801CE3
:1016C000400000F14020C0F8001C4FF44040204989
:1016D000088000BF00201C49087004E007274FF471
:1016E00080401B49088028E0AC88A64201D804202D
:1016F00000E002200746B44200D93446A0B2A968EF
:1017000088478046002003F037F98146A2B2494657
:10171000404602F0ADFFA1B2002003F095FB2888FF
:10172000001B28806888204468804FF440400849A6
:10173000088000110749088000BF024909680F723C
:10174000BDE8F087200200201A020020484800402F
:1017500032020020300200202DE9F0412A480068C2
:1017600000F110042688A068C0B1BEB1A588B542BA
:1017700000D93546A8B2A168884707462088401B93
:101780002080608828446080002003F0D3F88046E1
:10179000AAB24146384602F053FF00BF208858B134
:1017A0004FF44060194908800021084603F04CFBC3
:1017B0004FF44040164908802088A188884204DB05
:1017C00003201149096808721BE02088002804DD05
:1017D00005200D490968087213E0208888B90620A1
:1017E00009490968087200210A48006880B2801C13
:1017F000400000F14020C0F8001C4FF44040044974
:101800000880BDE8F08100002002002030020020A6
:1018100032020020484800402DE9F84F9B480068FC
:1018200045780027BA46062D1BD1984800680078F5
:1018300000F07F00002813D19449096888780128B6
:1018400003D193490968CF690AE0022803D190497E
:1018500009680F6A04E0032802D18D4909684F6ABC
:1018600094E0002D64D189480068408800285FD149
:1018700086480068C08802285AD1844800680079E8
:10188000002855D181480068007800F07F0028B911
:101890007E480068808808B97E4F77E07B48006802
:1018A000007800F07F00012810D178490968487954
:1018B000774909688A6900219047002866D17348F2
:1018C0000068807A002861D0724F5FE06F4800683E
:1018D000007800F07F00022858D16C4800684079F9
:1018E00000F00F0669480068407900F07009674809
:1018F0000068407900F0800038B1B00000F140206D
:10190000D0F8000800F4404806E0B00000F14020A4
:10191000D0F8000800F440685F480078B04235D93C
:10192000B9F1000F32D1B8F1000F2FD0594F2DE08F
:10193000082D07D155480068007800F07F0028BBCB
:10194000564F23E00A2D21D150480068007800F05E
:101950007F0001281AD14D480068807AB0B14B4809
:101960000068408890B949480068007970B94748D4
:101970000068C088012809D1444909684879444968
:1019800009688A690021904700B9454F57B13F481F
:101990000068A0F812A03D48006887610020B847A1
:1019A00000240FE0394A12685078394A12681169E8
:1019B00088470446032C05D1092034490968087278
:1019C000BDE8F88F31480068008A4FF6FF71884201
:1019D00004D109202D4909680872F1E7022C03D0CF
:1019E0002A480068008A20B9082028490968087236
:1019F000E6E726480068007800F08000E0B323485E
:101A00000068C088009021480068008A00998842D8
:101A100004D91E4900980968088223E01B48006821
:101A2000008A1A490968C98888421BDA1748006881
:101A3000008A1749096891F82C10884203DA0020BF
:101A4000184908700EE011480068008A10490968BA
:101A500091F82C1090FBF1F201FB120010B901205B
:101A6000104908700A48006890F82C100748006870
:101A70008182FFF70FFE07E0FFE7032003490968B3
:101A8000087280020849088000BF99E72002002000
:101A900024020020A133000884010020253300081F
:101AA000753300081A020020300200207047000041
:101AB00070B51E480078012836D11D48006818B955
:101AC00000201A4908702FE01948006840280ED9F4
:101AD0001848008885B240241648006840301549EF
:101AE0000860134800684038114908600FE0114849
:101AF000008885B20E48008884B20E4800680C4900
:101B0000096808440B4908600020094908600A492F
:101B100048192246C02102F0ABFD2146012003F006
:101B200093F9012003F09EF970BD0000140100201C
:101B3000100100200C0100206453002010B506495C
:101B4000032003F0C5F984B2E1B2034803F0D8F9E9
:101B5000032003F053F910BD6455002001490860CB
:101B600070470000100401400320014908607047DD
:101B70000C02002010B52DED088BB0EE408A9FEDD1
:101B8000210A28EE000AB0EE408A9FED1F0AB4EE4B
:101B9000C08AF1EE10FA02DDB0EE480A01E09FEDD6
:101BA0001A0AB0EE408A9FED190AB4EEC08AF1EE2F
:101BB00010FA02D2B0EE480A01E09FED140AB0EE2E
:101BC000408A18EE100AFEF7DBFD41EC1B0B9FED7F
:101BD000100B53EC102BFEF7F5FB41EC1A0BB0EE9B
:101BE0004A0AF0EE6A0A03F07BFEB0EE409AF0EE8D
:101BF000609A51EC190BFEF78BFD00B2BDEC088B1F
:101C000010BD000000000047000000C700FEFF46B6
:101C1000000000000000E03F10B52DED088BB0EE95
:101C2000408A9FED210A28EE000AB0EE408A9FED1F
:101C30001F0AB4EEC08AF1EE10FA02DDB0EE480AD7
:101C400001E09FED1A0AB0EE408A9FED190AB4EE4A
:101C5000C08AF1EE10FA02D2B0EE480A01E09FED20
:101C6000140AB0EE408A18EE100AFEF789FD41EC26
:101C70001B0B9FED100B53EC102BFEF7A3FB41EC5D
:101C80001A0BB0EE4A0AF0EE6A0A03F029FEB0EE33
:101C9000409AF0EE609A51EC190BFEF739FD00B254
:101CA000BDEC088B10BD000000000047000000C71D
:101CB00000FEFF46000000000000E03FF0B50246D5
:101CC000002346E001279F40D1F800C00CEA070539
:101CD000002D3DD09E089F07FC0E02F10C0757F81F
:101CE00026001F27A740B8434F69A740384302F199
:101CF0000C0747F8260090680F7907F01007102F9F
:101D000001D1284300E0A84390605C0010680327DD
:101D1000A740B8430F7907F00307A7403843106086
:101D200050680327A740B8438F68A74038435060E6
:101D3000106A01279F40B843CF689F403843106224
:101D4000D0690327A740B8430F69A7403843D06143
:101D50005B1C0F68DF40002FB4D1F0BD0021016093
:101D6000C1604160416181600121016170470000F3
:101D700070B52F480078012858D02E480068B0F57B
:101D8000007F02D100202B4908602A4800682A49B8
:101D90000968884203D100202549087070BD254894
:101DA000006825490968884206D922480068C0F5BC
:101DB00000702249086006E01F4800681D49096854
:101DC000401A1E4908601D48006840280ED919486D
:101DD000008885B2402417480068403015490860E3
:101DE000164800684038154908600FE0114800881F
:101DF00085B21248008884B20E4800680F4909680D
:101E000008440C49086000200C490860012008497A
:101E100008700B4948192246C02102F029FC2146CE
:101E2000012003F011F8012003F01CF800BFB5E712
:101E3000140100200C0100200801002010010020E6
:101E40006453002000BFFEE730B58FB005460C4656
:101E50001348FFF7DDFA01A8FFF70AFC11480190CB
:101E60000295049400200390059080200690800144
:101E70000A9040110790800008902020099001A945
:101E80000748FFF7BBFB012205491720FFF7E8FBD6
:101E9000012202210248FFF7B1FA0FB030BD000065
:101EA0003C0002400C24004000B587B04FF40040D5
:101EB000019000200290012006900020039001A9CB
:101EC0000F48FFF7FBFE4FF40050019002200290F4
:101ED000012006900020039001A90948FFF7EEFEBB
:101EE0004FF48050019002200290012006900020C3
:101EF000039001A90248FFF7E1FE07B000BD000012
:101F000000C4024000B58DB0002000F079FD302003
:101F1000ADF820000020ADF82200ADF82400ADF8A7
:101F200026004FF47A500A900020ADF82C0001A84A
:101F300000F0DCFD01980C9008A9024800F022F89E
:101F40000DB000BD0024004010B50121022000F0BA
:101F500075FD0121084600F0ADFD0121080200F0E9
:101F60008DFD0121802000F079FD10BD21B1828B13
:101F700042F00102828304E0828B4FF6FE731A4026
:101F8000828370472DE9F041B0F81CC040F2FC5844
:101F90000CEA080CA0F81CC04FF0020CA0F820C0FE
:101FA000878BD1F808C0BCF1020F02D100240222B5
:101FB0003AE0B1F804C0BCF1000F01D1012500E006
:101FC00002250E69B1F806C0BCF5006F0ED14FEACC
:101FD000162C0CEB8C0C4FEA4C0CD1F80880BCFB97
:101FE000F8FC0CF1050C1FFA8CF30FE04FEA451CCE
:101FF000B6FBFCFC0CEB8C0C4FEA4C0CD1F80880C7
:10200000BCFBF8FC0CF1050C1FFA8CF34FF00A0C2A
:10201000B3FBFCF303F00104A3EB040CCCF34F027D
:102020004FF6FF7C0CEA8424022A02DBB2F5806FB3
:1020300001DB02220024B1F806C04CEA040C4CEA91
:10204000020CA0F820C0B1F804C0B1F80C804CEA32
:10205000080CB1F802804CEA080CB1F800804CEA98
:10206000080C4CF0020C4CEA07078783BDE8F081AE
:102070000021018041808180C18002218160002196
:10208000818170472DE9F34F89B081464FF0804040
:1020900002900A98A0F1010A1EE359F82A00FC49AF
:1020A000884204DC59F82A004942884203DA0020B9
:1020B0000BB0BDE8F08F59F82A00C001444284FB00
:1020C0000410C0F180400190DDE9010181FB0010A6
:1020D00080000290EF490298884201DA0020E7E789
:1020E0000199002901DD019901E001994942084661
:1020F0001CF07AFAC0F12001039103991E31019876
:102100001FF0C9F9009000200490DCE2049859F80F
:1021100020500498AAEB0000401E59F82080039834
:1021200001287DD188FB0401800F40EA810C8817CB
:1021300001221CEB020240F1000040104FEA320085
:10214000A5EB000000F0004030BB88FB0401800FCD
:1021500040EA81004FEAA17C0146491C4CF1000095
:1021600040104FEA310080F0004000EA050000F026
:10217000004010B14FF0004032E088FB0401800FB6
:1021800040EA81028817521C40F1000040104FEADB
:102190003200A5EB000023E085F0004188FB04023B
:1021A000800F40EA820390175A1C40F10000401053
:1021B0004FEA320001EA000101F0004010B16FF077
:1021C00000400DE088FB0401800F40EA810288177F
:1021D000521C40F1000040104FEA3200A5EB000015
:1021E000009980FB010149104FEA300088FB04236D
:1021F0004FEA927242EA830E4FEAA3724FF0010C4B
:102200001EEB0C0C42F1000252104FEA3C02A5EB0F
:10221000020202F0004262BB88FB0423920F00E03E
:102220005BE042EA830E9A174FF0010B1EEB0B0C9A
:1022300042F1000252104FEA3C0282F0004202EAF0
:10224000050202F0004212B14FF000423AE088FB72
:102250000423920F42EA830E9A174FF0010B1EEBF4
:102260000B0C42F1000252104FEA3C02A5EB0202B5
:1022700028E085F0004388FB042C920F42EA8C0290
:102280004FEAAC7C521C4CF1000C5FEA6C0C4FEA3C
:10229000320203EA020303F0004212B16FF000427F
:1022A00010E088FB0423920F42EA830E9A174FF046
:1022B000010B1EEB0B0342F1000252104FEA3302F6
:1022C000A5EB0202009B82FB03324FF0010B03EAF5
:1022D0000B03C01841F1000171E088FB0401800F7D
:1022E00040EA81028817521C40F1000040104FEA7A
:1022F0003200A5EB000000F0004040BB88FB040169
:10230000800F40EA81004FEAA17C0146491C4CF154
:10231000000040104FEA310080F0004000EA050064
:1023200000F0004010B14FF0004038E088FB04019D
:10233000800F40EA810C881701221CEB020240F159
:10234000000040104FEA3200A5EB000027E085F0C6
:10235000004188FB0402800F40EA820B90170123A2
:102360001BEB030340F1000040104FEA330001EA89
:10237000000101F0004010B16FF000400FE088FB59
:102380000401800F40EA81004FEAA17C0146491C0C
:102390004CF1000040104FEA3100A5EB000000991D
:1023A00080FB0101039AA2F10102CDE90510FDF7BE
:1023B0009FFF401C41F1000149104FEA30000646E2
:1023C0000F466FF000434FF00002981BBA4104DB48
:1023D000D907711A77F1FF3001DA002068E6049816
:1023E00049F82060039801287ED185FB0401800F05
:1023F00040EA81004FEAA17C0146491C4CF10000F3
:1024000040104FEA3100A8EB000000F0004030BB64
:1024100085FB0401800F40EA81028817521C40F1BD
:10242000000040104FEA320080F0004000EA08004F
:1024300000F0004010B14FF000403DE085FB04018A
:10244000800F40EA810C881701221CEB020240F148
:10245000000040104FEA3200A8EB00002CE088F0AA
:10246000004285FB0401800F40EA810B881701219F
:102470001BEB010140F1000040104FEA310002EA7D
:10248000000202F0004038B16FF0004014E000009C
:102490009EEFFF006EA3010085FB0401800F40EA60
:1024A00081004FEAA17C0146491C4CF1000040101C
:1024B0004FEA3100A8EB0000009980FB01014910B0
:1024C0004FEA300085FB04234FEA927242EA830E02
:1024D0004FEAA3724FF0010B1EEB0B0C42F100020E
:1024E00052104FEA3C0200E060E0A8EB020202F06A
:1024F000004242BB85FB0423920F42EA830E9A17E7
:102500001EEB0B0C42F1000252104FEA3C0282F02B
:10251000004202EA080202F0004212B14FF000420B
:1025200039E085FB0423920F42EA830E9A174FF09D
:10253000010C1EEB0C0C42F1000252104FEA3C025F
:10254000A8EB020227E088F0004385FB042C920FE1
:1025500042EA8C024FEAAC7C521C4CF1000C5FEA60
:102560006C0C4FEA320203EA020303F0004212B19C
:102570006FF000420FE085FB0423920F42EA830EC6
:102580009A1701231EEB030342F1000252104FEA97
:102590003302A8EB0202009B82FB03324FF0010BD7
:1025A00003EA0B03C01841F1000173E085FB04014D
:1025B000800F40EA81004FEAA17C0146491C4CF1A2
:1025C000000040104FEA3100A8EB000000F000408E
:1025D00040BB85FB0401800F40EA810C8817012273
:1025E0001CEB020240F1000040104FEA320080F084
:1025F000004000EA080000F0004010B14FF0004039
:1026000038E085FB0401800F40EA810C8817012126
:102610001CEB010140F1000040104FEA3100A8EB33
:10262000000027E088F0004185FB0402800F40EAAB
:10263000820B901701231BEB030240F100004010B6
:102640004FEA320001EA000101F0004010B16FF0E2
:1026500000400FE085FB0401800F40EA810C8817E1
:1026600001221CEB020240F1000040104FEA320050
:10267000A8EB0000009980FB0101039AA2F101027E
:10268000CDE90710FDF734FE401C41F1000149106F
:102690004FEA30000F4606466FF000424FF000014F
:1026A000901BB94104DBD107711A77F1FF3001DAD1
:1026B0000020FDE40498AAEB0000401E49F82060C9
:1026C0000498401C04900AF101010498B0EB610FDA
:1026D000FFF61CADAAF1010ABAF1000F3FF7DDAC1D
:1026E00059F82A001049884204DC59F82A00494266
:1026F000884201DA0020DBE4D9F80000C00144423E
:1027000084FB0410C0F180400190DDE9011080FBE2
:1027100001108000029005490298884201DA0020E9
:10272000C6E40298C4E400009EEFFF006EA301001F
:1027300000BFFEE710B501220221064800F048FC68
:1027400001210448FFF712FC01210348FEF73CFF7A
:1027500010BD0000002400403C0002407047000013
:1027600070B50F22C47814B3164C246804F4E064E6
:10277000C4F5E064210AC1F1040404F00703CA406F
:10278000447804FA03F184781440214309010E4C83
:102790000678A155047804F01F050124AC400578A3
:1027A0006D11AD0005F1E025C5F8004109E00478A0
:1027B00004F01F050124AC40044D0678761145F85D
:1027C000264070BD0CED00E000E400E080E100E098
:1027D00002490143024A1160704700000000FA05F7
:1027E0000CED00E070B50226484800684478474880
:1027F0000068007800F07F00002844D1092C03D144
:1028000000F04CFE06465FE0052C14D13F480068FE
:10281000C0787F280BDC3D480068807838B93B4899
:102820000068808818B939480068807A08B108259E
:1028300067E0002648E0032C0ED134480068C078D9
:10284000012807D131480068808818B900F04AFE95
:10285000064639E0022637E0012C35D12B480068C6
:10286000C07801280DD129480068808848B92748D8
:102870000068407A00F0200018B100F0A1FC064684
:1028800022E0022620E021480068007800F07F0066
:10289000012805D10B2C17D100F09AFE064613E053
:1028A0001A480068007800F07F0002280BD1012C44
:1028B00003D100F085FC064606E0032C04D100F0AD
:1028C00025FE064600E002264EB1E0B2104A12682C
:1028D000516988470646032E01D1092511E00EB142
:1028E00008250EE0062500210A48006880B2801CF9
:1028F000400000F14020C0F8001C68030649088031
:1029000000BF024909680D7270BD0000200200205E
:102910002402002048480040320200204FF4807119
:102920000A48016000200A4A108010460088074AC1
:1029300010600020121D10601C20054A10801046F7
:102940000088024A106000207047000040480040A4
:102950002A0200200146886808B90120704700203B
:10296000FCE701460868001D7047002141600160D6
:102970008160704770B50446206800B970BD256855
:10298000206800682060206808B900206060284640
:102990000FF092FBA068401EA06000BFEEE70000B1
:1029A0002DE9F04104460F4616464FF4827011F0AF
:1029B000E1F9054625B90DA018F022F9BDE8F0812E
:1029C00032463946281DFDF7A5FCC5F800610020F8
:1029D0002860606810B96560256002E06068056085
:1029E0006560A068401CA06000BFE7E76D616C6C8B
:1029F0006F63206661696C0001468868704700005B
:102A00000146034AD06820F040700843D060704708
:102A1000001002400146034AD06820F0406008439D
:102A2000D0607047001002400146034A506820F40D
:102A300060600843506070470010024029B1064AA8
:102A4000D26B0243044BDA6304E0034AD26B824345
:102A5000014BDA63704700000010024029B1064ABA
:102A600092690243044B9A6104E0034A92698243EB
:102A7000014B9A61704700000010024029B1064ADC
:102A8000D2690243044BDA6104E0034AD26982430B
:102A9000014BDA6170470000001002400449896A66
:102AA0000143034A91621146896A814391627047EA
:102AB0000010024029B1064A126A0243044B1A620E
:102AC00004E0034A126A8243014B1A627047000015
:102AD000001002400449C96A0143034AD162114609
:102AE000C96A8143D1627047001002402DE9F04F5E
:102AF00091B004460020109076A2D2E90030D2E9CD
:102B00000212CDE90C30CDE90E1276A30FCB08AD41
:102B10000FC5784BD3E90020D3E9021305AD0BC5EF
:102B200004927548806C20F07C487348C06C4FEA72
:102B300090697148006DC0F3806BBBF1000F15D137
:102B40006E484FEA9831A0FB011009F10102002301
:102B5000CDE9001008460199FDF77AFB0422002315
:102B6000CDE90201FDF774FB064614E063484FEA25
:102B70009831A0FB011009F101020023CDE90010FA
:102B800008460199FDF764FB04220023CDE9020108
:102B9000FDF75EFB0646A6615748406800F04075A9
:102BA000B5F1807F02D1554820601EE015B9534829
:102BB00020601AE0B5F1007F15D14F48006C00F499
:102BC0004010B0F5801F01D126600EE04A48006C2D
:102BD00000F44010B0F5401F02D14948206004E0E5
:102BE0000120109001E045482060109801282DD167
:102BF00041484068C0F3C500042101EB40083E484D
:102C0000006CC0F3014000F101093B48006CC0F3C7
:102C1000814A3948406800F0010BBBF1000F07D131
:102C200035484068C0F38001344820FA01F606E0D8
:102C300031484068C0F34001304820FA01F6B6FB45
:102C4000F9F000FB08F020FA0AF626602A484068EE
:102C500000F470252D0C082D00D200250CA8475D2E
:102C60002068F84060602448406800F460656D0AA0
:102C70000CA8475D6068F840A0601F48406800F4F9
:102C8000E0452D0B0CA8475D6068F840E0601A48ED
:102C9000806800F00F0508A8475D6068B0FBF7F09A
:102CA00060611548806800F070052D0904A830F8AF
:102CB00015701148806800F08000802804D1104809
:102CC000B0FBF7F0206102E0B6FBF7F0206111B035
:102CD000BDE8F08F000000000102030401020304BC
:102CE000060708090102030406080A0C1020202028
:102CF00020202020AC7E03080010024000127A0041
:102D0000001C4E0E10B50446072C01D02E4804704E
:102D10002D48007808284ED2DFE800F004111A2070
:102D20002B384E4F2948006828B900F053F8062088
:102D30002549087002E005202349087041E000F0B1
:102D400049F804202049087001202049086038E033
:102D500002201D4948700320087032E01A4840786C
:102D6000401E194948700846407808B90420087088
:102D700027E01748006883B243F480531448036087
:102D80000520114908700A2048701AE00E48407862
:102D9000401E0D4948700846407858B90C480068F4
:102DA00083B223F480530A48036006200870002091
:102DB0000649086005E000BF00BF06200249087010
:102DC00000BF00BF10BD000011020020140200204F
:102DD000404800400749096888B220F480600549EE
:102DE00008607F21034A11601146096841F40051CF
:102DF000116070474048004010B509480068052838
:102E00000CD1084801680068401C064A106005297A
:102E100004D1002011460860FEF7AAFF10BD000093
:102E20000C0200203001002030B58FB005460C4662
:102E30001148FEF7EDFA01A8FEF71AFC0F480190C1
:102E400002951020039004940020059080200690A5
:102E50004000079080000890002009904FF4005037
:102E60000A9001A90448FEF7C9FB012202491A2071
:102E7000FEF7F6FB0FB030BD140402400C280040F2
:102E800000B587B00220019002900120069000203A
:102E90000390049001A90A48FEF710FF0420019056
:102EA0000C20069001A90648FEF708FF08200190B3
:102EB0000220069001A90248FEF700FF07B000BDFE
:102EC00000C8024000B58DB0114800F049F800205C
:102ED000FFF7A0FD08A8FFF7CBF82020ADF82000F1
:102EE0000020ADF82200ADF82400ADF826004FF424
:102EF000FA500A900020ADF82C0001A8FFF7F6FD6B
:102F000001980C9008A90248FFF73CF80DB000BDED
:102F10000028004010B501210420FFF78FFD01219A
:102F20000846FFF7C7FD01214802FFF7A7FD012171
:102F30000802FFF793FD10BD10B5012204210648D9
:102F400000F046F801210448FFF710F8002103487B
:102F5000FEF73AFB10BD00000028004014040240B8
:102F600010B504461448844203D11020FFF7B2FD87
:102F700021E01248844203D18015FFF78FFD1AE04B
:102F80000F48844203D14015FFF788FD13E00D4838
:102F9000844203D10820FFF79DFD0CE00A488442DB
:102FA00003D10420FFF796FD05E00848844202D1D2
:102FB0000220FFF78FFD10BD0018014000240040E3
:102FC00000280040002C0140003001400034014046
:102FD0001AB183880B43838002E083888B4383800C
:102FE0007047704710B5830003F14023D3F80038D1
:102FF00041F6FF5403EA040201F480630BB182F44A
:10300000806201F400630BB182F4006242F48854E0
:10301000830003F14023C3F8004810BD10B58300BE
:1030200003F14023D3F800384DF2FF1403EA040201
:1030300001F480430BB182F4804201F400430BB1F0
:1030400082F4004242F48854830003F14023C3F821
:10305000004810BD30B50146214BDB6943F0010348
:103060001F4CE361A304186820F43870084318600B
:103070001B6843F01003A4042360002200E0521CEC
:10308000B2F5FA6FFBD300BF4FF080435B6803F0EB
:103090000403002BF8D100BF00BF124C246844F099
:1030A0008074104D2C6000240F4D6C602C462468F9
:1030B00044F001042C6000BF2C4664680B4D63197A
:1030C00000BF094C64689C42FBD300BF054C2468D8
:1030D00024F08074034D2C6000BF00BF30BD0000A1
:1030E00000100240FCED00E0001000E080A90300A9
:1030F0001EB52DA41CCC8DE81C002E4A106820F0B3
:10310000070040F0050010602B4A52682A4B5A60B5
:103110001A46526842F480425A601A46526842F493
:1031200000625A601A465068116C6FF30800234A17
:10313000114000BF40F0680000F4FC72502A03D830
:1031400046F2403211430AE000F4FC72902A03D8A0
:1031500046F24072114302E046F64042114300BF7E
:103160009DF8012041EA8241134A506011641268BF
:1031700042F00102104B1A6000BF0F4A126802F0C1
:103180000202002AF9D00C4A506820F0406040F05A
:103190000060506000BF084A526802F04072B2F10D
:1031A000007FF8D11EBD00000000010102020202F2
:1031B0000303000000200240001002400F80F0FFD7
:1031C0002DE9F04753480068007800F07F08B8F117
:1031D000000F0AD14F480068407A00F0DF004D49E7
:1031E000096848720020BDE8F087B8F1020F7CD171
:1031F00048480068408818B946480068007908B116
:103200000220F0E7DFF8109142480068477927F084
:1032100080052C463F480068407900F0800038B1B6
:10322000A00000F14020D0F8000800F4404606E07D
:10323000A00000F14020D0F8000800F4406699F8A2
:103240000000A84204D91EB132480068807A08B94B
:103250000220C8E707F0800090B1A00000F14020F4
:10326000D0F8000800F44040B0F5804F48D1E0B2FB
:1032700001F0BEF9E0B24FF44041FFF7CFFE3FE06E
:10328000A00000F14020D0F8000800F44060B0F544
:10329000806F35D1D4B9214A92F82C10E0B201F0F8
:1032A00087FDA10001F14021D1F8001841F6FF523D
:1032B00001EA020080F4806080F4006040F48852EB
:1032C000A10001F14021C1F8002819E0E0B201F0AD
:1032D00077F9A10001F14021D1F8001841F6FF5221
:1032E00001EA020080F4806000E00FE080F40060FA
:1032F00040F48852A10001F14021C1F8002800BF2C
:10330000074909684869804700206CE700BF022030
:1033100069E70000200200208401002088010020CD
:103320002C02002010B504462CB90120064909687A
:103330000882002010BD05490968086880470248D6
:1033400000680A30F6E70000200200202C0200206E
:1033500010B5024606480068438A32B98888C01A08
:10336000034C24682082002010BD08681844FBE745
:103370002002002010B504462CB901200649096836
:103380000882002010BD0549096888688047024806
:1033900000680C30F6E70000200200202C0200201C
:1033A00010B504462CB9022039490968088200206A
:1033B00010BD00203749088035480068007800F0CB
:1033C0007F0018BB32490968487A00F0200131B10A
:1033D0003049097841F002012E4A117005E02D496B
:1033E000097801F0FD012B4A117000F0400131B164
:1033F0002849097841F00101264A117005E0254964
:10340000097801F0FE01234A11703BE02048006872
:10341000007800F07F00012801D11E48C8E71C4851
:103420000068007800F07F00022829D1184A12684D
:10343000517901F00F0001F0800282B1820002F1A7
:103440004022D2F8002802F44042B2F5804F16D153
:10345000104A127842F001020E4B1A700FE08200FF
:1034600002F14022D2F8002802F44062B2F5806FE7
:1034700005D1084A127842F00102064B1A7001E0A9
:10348000002095E7044909680869804701488FE7EB
:1034900020020020180200202C02002010B50E4847
:1034A0000068C0780D494978884213DC0A480068F2
:1034B000807878B908480068808858B9064800685C
:1034C000C0780549096888720549096848688047D5
:1034D000002010BD0220FCE7200200208401002013
:1034E0002C02002010B507480068407A40F0200008
:1034F00004490968487204490968C869804700207E
:1035000010BD0000200200202C0200202DE9F04117
:103510002C480068467926F080073C462948006818
:10352000407900F0800038B1A00000F14020D0F8D0
:10353000000800F4404506E0A00000F14020D0F86B
:10354000000800F4406520480078A04208D91D48D2
:103550000068408820B91DB11A480068807A10B907
:103560000220BDE8F08106F0800090B1A10001F1D9
:103570004021D1F800184DF2FF1201EA020080F458
:10358000804040F48852A10001F14021C1F8002898
:1035900012E0A10001F14021D1F8001841F6FF52DC
:1035A00001EA020080F4806040F48852A10001F139
:1035B0004021C1F8002800BF044909688869804794
:1035C0000020CEE720020020840100202C020020F1
:1035D00010B5174B1B68D978154B1B685879154BDC
:1035E0001B689A699047044611480068807AE8B1E0
:1035F0003CB90F480068007918B90D480068807818
:1036000008B1022010BD8CB90B490968C868804711
:1036100007480068407906490968C872044800688C
:10362000C0780349096808730020EBE70220E9E746
:1036300020020020240200202C02002070B500256A
:103640002148006884B200BF09E0A80000F14020D2
:10365000D0F8000880B21D4941F825006D1C082DE6
:10366000F3D344F004041848046044F48074046004
:1036700024F48074046000BF1348001D006800F04B
:1036800004000028F8D04FF6FB700F49091D0860B0
:10369000002509E00D4850F8250081B2A80000F18E
:1036A0004020C0F800186D1C082DF3D344F40064CA
:1036B00005480460006884B244F4806402480460F1
:1036C000FEF752FA70BD000040480040A4550020AB
:1036D0007047000010B52048006840F470001E4993
:1036E00008601E48006840F004001C490860084655
:1036F00040681B490840194948600846006820F0A6
:10370000D1000860084640686FF30800486008462A
:10371000006C20F47C1008644FF4E0408860712055
:10372000C86010480861002008630F48006840F036
:1037300010000D4908600846006820F0800008600D
:10374000FFF7D6FC4FF00060034980390860801411
:10375000FFF780FC10BD000088ED00E00010024083
:10376000FF01F0330000FF010020024021B1026898
:1037700042F40072026003E0026822F40072026008
:1037800070470A46816921F4806141EA0221816122
:10379000704721B1026842F00102026003E0026852
:1037A00022F00102026070471AB143690B43436182
:1037B00002E043698B4343617047000070B5456A7E
:1037C00025F040054562426A4468836923F46043FA
:1037D00023F4802323F440730D68B5F5003F0DD02A
:1037E000274E0D68B54209D0254EA0360D68B5426A
:1037F00004D0234EC0360D68B54205D10D6843EAAA
:10380000052343F4802302E00D6843EA052322F0F8
:1038100080020D6942EA05124D6842EA0512194D0F
:10382000A84205D0184DA84202D0184DA84213D185
:1038300022F020024D6942EA051222F010028D6842
:1038400042EA051224F0040424F008048D6944EAD5
:103850008504CD6944EA85040D4DA84205D00D4D7F
:10386000A84202D00C4DA84204D124F004048D6972
:1038700044EA850444608361CD68C562426270BDDC
:1038800020000200002003400024034000280340E1
:10389000000C0140001001400014014000210160B3
:1038A00041608160C160016141618161C1617047B6
:1038B0000021016041604FF6FF7181600021C1600D
:1038C000016141618161C1610162816270470000F3
:1038D00010B50368D04CA04223D0D04CA04220D0D9
:1038E000CF4CA0421DD0CF4CA0421AD0CE4CA0420B
:1038F00017D0CE4CA04214D0CD4CA04211D0CD4C0C
:10390000A0420ED0CC4CA0420BD0CC4CA04208D050
:10391000CB4CA04205D0CB4CA04202D0CA4CA04216
:1039200003D123F00E034C682343BB4CA04223D0A9
:10393000BA4CA04220D0BA4CA0421DD0B94CA042F3
:103940001AD0B94CA04217D0B84CA04214D0B84CF1
:10395000A04211D0B74CA0420ED0B74CA0420BD021
:10396000B64CA04208D0B64CA04205D0B54CA042FF
:1039700002D0B54CA04203D123F0C003CC6823434E
:1039800003608C6844640C680464A34CA0420ED0AD
:10399000A24CA0420BD0A24CA04208D0A84CA042FE
:1039A00005D0A84CA04202D0A74CA04201D10C697E
:1039B000C4644FF48074C4600368826F964CA04264
:1039C00023D0964CA04220D0954CA0421DD0954CBF
:1039D000A0421AD0944CA04217D0944CA04214D0CC
:1039E000934CA04211D0934CA0420ED0924CA042D6
:1039F0000BD0924CA04208D0914CA04205D0914CE3
:103A0000A04202D0904CA04207D1864CA04204D0E4
:103A100022F00F024C69224308E0824CA04205D1FB
:103A200023F4803322F00F024C6922437A4CA042E7
:103A300023D07A4CA04220D0794CA0421DD0794CA2
:103A4000A0421AD0784CA04217D0784CA04214D093
:103A5000774CA04211D0774CA0420ED0764CA042B9
:103A60000BD0764CA04208D0754CA04205D0754CC6
:103A7000A04202D0744CA04207D16A4CA04204D0AC
:103A800022F0F0028C6922430FE0664CA0420CD178
:103A900023F4003322F0F0028C69B4F5003F02D029
:103AA0008C69224301E08C6923435B4CA04223D004
:103AB0005A4CA04220D05A4CA0421DD0594CA04292
:103AC0001AD0594CA04217D0584CA04214D0584C90
:103AD000A04211D0574CA0420ED0574CA0420BD060
:103AE000564CA04208D0564CA04205D0554CA0429E
:103AF00002D0554CA04207D14A4CA04204D022F437
:103B00007062CC6922430FE0464CA0420CD123F4F2
:103B1000802322F47062CC69B4F5802F02D0CC6986
:103B2000224301E0CC6923433B4CA04223D03B4CD1
:103B3000A04220D03A4CA0421DD03A4CA0421AD00C
:103B4000394CA04217D0394CA04214D0384CA04276
:103B500011D0384CA0420ED0374CA0420BD0374C7D
:103B6000A04208D0364CA04205D0364CA04202D02C
:103B7000354CA04207D12B4CA04204D022F4704215
:103B80000C6A22430FE0274CA0420CD123F40023FF
:103B900022F470420C6AB4F5002F02D00C6A224362
:103BA00001E00C6A23431C4CA04223D01B4CA042D2
:103BB00020D01B4CA0421DD01A4CA0421AD01A4C47
:103BC000A04217D0194CA04214D0194CA04211D0D9
:103BD000184CA0420ED0184CA0420BD0174CA0425B
:103BE00008D0174CA04205D0164CA04202D0164C6B
:103BF000A0420ED123F4005322F4702222F070620E
:103C00004C6A14B98C6A224303E043F400538C6A73
:103C100022430360826710BD00200340002403405C
:103C200000280340002C00400030004000340040D9
:103C300000380040005C004000600040006400402C
:103C4000000C0140001001400014014030B58FB05D
:103C500005460C461348FDF7DBFB01A8FDF708FD00
:103C60001148019002950020039004940590802053
:103C7000069000200790089009904FF440500A9059
:103C800000200B9001A90748FDF7B8FC0122054967
:103C90001120FDF7E5FC01210248FDF795FC0FB06E
:103CA00030BD0000640402401024014000B587B01C
:103CB0004FF400600190022002900820069001203D
:103CC00003900020049001A90948FDF7F7FF4FF485
:103CD000806001900220029008200690012003904D
:103CE0000020049001A90248FDF7E8FF07B000BDDD
:103CF00000C4024000B587B0684600F01EFC4AF2DE
:103D0000F8700090002001900290039005900690BA
:103D1000062004906946094800F08AFB0122202110
:103D2000064800F056FB01220549044800F014FB48
:103D30000121024800F042FB07B000BD0024014011
:103D4000000100102DE9F041D249D34800F052FBA8
:103D5000002874D00021D148FDF736FCCE4800F091
:103D6000E3FBCF48007800286AD0CE48007888B9B5
:103D7000CD490978C1EB811101EB4101CB4A02EB3E
:103D8000C100CBA1FCF7F8FA08B1012000E0002047
:103D9000C4490870C748007888B9C3490978C1EB9D
:103DA000811101EB4101C14A02EBC100C2A1FCF744
:103DB000E3FA08B1012000E00020BE490870C048C5
:103DC000007888B9B8490978C1EB811101EB41014C
:103DD000B64A02EBC100BBA1FCF7CEFA08B1012044
:103DE00000E00020B6490870B848007888B9AE49AC
:103DF0000978C1EB811101EB4101AC4A02EBC10032
:103E0000B3A1FCF7B9FA08B1012000E00020AF49E6
:103E10000870A5490978C1EB811101EB4101A34A62
:103E200002EBC1004FF4BD61FCF79BFA4FF4BD619A
:103E30009A48FDF71BFC01219848FDF7C5FB1AE1E4
:103E400099480078A54908709748007808B901207A
:103E500000E00020944908709048FDF7C0FBC0F5D1
:103E6000BD6791490978C1EB811101EB41018F4A8E
:103E700002EBC1009A490968FFF7E8FE4FF4BD6103
:103E80008648FDF7F3FB01218448FDF79DFB95482B
:103E9000007888B991490978C1EB811101EB4101A2
:103EA000824A02EBC10090A1FCF766FA08B101203A
:103EB00000E000208B4908708C48007888B9874959
:103EC0000978C1EB811101EB4101784A02EBC10095
:103ED00087A1FCF751FA08B1012000E000208349D6
:103EE00008707E490978C1EB811101EB41016F4AED
:103EF00002EBC10080A1FCF73FFA68B17F4800786F
:103F000080F001007D49087008460078002802D042
:103F100000207B490880A0E0784800780028FAD08B
:103F20006E490978C1EB811101EB41015F4A02EB57
:103F3000C10074A1FCF720FA0028ECD000207249DF
:103F4000088072490880002483E0022C7EDD6348EB
:103F50000078C0EB801000EB4000544901EBC0003A
:103F6000005D582874D15D480078C0EB801000EBEC
:103F7000400001EBC001601E085C2C2868D1A51E22
:103F800000E06D1E002D0BDB54480078C0EB801064
:103F900000EB4000454901EBC000405D2C28F0D10A
:103FA0006D1C2E4612E04D480078C0EB801000EBEF
:103FB00040003E4901EBC000815D53480288008803
:103FC000401C514B188052488154761C601EB042F0
:103FD000E9DC4F48FCF7E9F94E4908804C480021DC
:103FE000016004F10108002017E03C490978C1EBA9
:103FF000811101EB41012D4A02EBC103414608F159
:1040000001085A5C41490B880988491CDFF8FCC04B
:10401000ACF800104049CA54401C3E490988884207
:10402000E3DB3A4802883C493C48FEF7B9FC344897
:104030000088401C324908800020344908803249F9
:10404000088034480088401C044400E000E000BFC1
:10405000641CBC42FFF679AF00BF20490978C1EB70
:10406000811101EB4101114A02EBC1004FF4BD6126
:10407000FCF777F900BF4FF47041074800F0B2F940
:1040800028B105480C300068034810300068BDE8CE
:10409000F08100000001001000240140640402408F
:1040A0002C0000202D000020100000203C430020A8
:1040B0004F4B00002F00002053544154453A32002A
:1040C000300000204F50454E3A00000031000020E3
:1040D000434F4E4E45435445440000005C000020D1
:1040E00008000020320000203E0000002E000020CA
:1040F0004552524F52000000747473003300002088
:10410000120000202C58000056000020580000200B
:104110004B0000205A000020902B00200C53002060
:1041200008B54FF4A060FEF753FB4B208DF800005C
:1041300001208DF801008DF802008DF8030068461B
:10414000FEF70EFB08BD10B501210220FEF776FC3C
:1041500001210846FEF7AEFC01218020FEF7AAFCF3
:1041600001210802FEF77AFC10BD000070B505467B
:1041700000240DE0295D0A4800F0DBF900BF4FF490
:104180008071074800F02EF90028F8D0601CC4B2F6
:104190002846FCF703F9A042ECD8012070BD0000CE
:1041A0000024014010B54FF40071084800F01AF9DE
:1041B00008B100F0CFF94FF40051044800F012F9B3
:1041C00010B1024800F0B0F910BD00000028014015
:1041D00070B505460E4600240CE0295D074800F046
:1041E000A8F900BF4FF48071044800F0FBF80028E4
:1041F000F8D0641CB442F0D370BD0000002401402C
:1042000010B588B0044601210846FEF717FC0121CD
:1042100044F20100FEF74EFC4FF4A060FEF7D8FA1E
:1042200002A8FDF79BFD4FF400600290022003906E
:104230000E20079002A91548FDF740FD4FF480506D
:1042400002900E20079002A91048FDF737FD342098
:104250008DF8040001208DF8050002208DF806007D
:1042600001208DF8070001A8FEF77AFA21460848D8
:1042700000F0DEF801220749054800F06DF8012141
:10428000034800F09BF808B010BD000000C00240D9
:10429000002801400002001010B52D48007920B11F
:1042A000012806D002280CD107E0002029498860A7
:1042B0000BE060202749886007E04020254988609E
:1042C00003E000F067F8002010BD00BF20484079EF
:1042D00020B1012806D002280CD107E000201D499A
:1042E000C8600BE010201B49C86007E0182019497E
:1042F000C86003E000F04EF80020E5E700BF144876
:104300008079072802D008280FD103E00020114946
:1043100048600EE00F48C06818B900200D49486099
:1043200002E020200B49486003E000F033F8002051
:10433000CAE700BF06480068064908600020886197
:104340004861062008610846FFF75AFF0120BBE7D5
:104350007C0100204853002030B50346184621F068
:10436000704401F0805505B10AE001F000550DB12F
:10437000001D05E001F080450DB1083000E01C3063
:104380001AB105682543056002E00568A54305608C
:1043900030BD000010B54FF4E1300749086000203F
:1043A00048608860C86088614861062008610846E6
:1043B000FFF726FF10BD00004853002021B102681E
:1043C00042F00102026003E0026822F00102026092
:1043D00070471AB183680B43836002E083688B43A4
:1043E000836070470246D3680B400BB1012000E0A8
:1043F0000020704710B5024621F0704301F0805450
:1044000014B1146823400DE001F0005414B1546855
:10441000234007E001F0804414B19468234001E098
:10442000D46923400BB1012000E0002010BD000042
:104430002DE9F04788B005460F462E466C6824F0FB
:104440006004B86804436C602C6832480440F96822
:1044500078680843B96908433969084304432C6004
:10446000AC6824F0050478690443AC6001A8FEF749
:104470003DFB2948864208D02848864205D0284876
:10448000864202D02748864202D1DDF8109001E032
:10449000DDF80C90286800F0806048B94FEA990078
:1044A00000EBC00101EB00103968B0FBF1FA08E045
:1044B0004FEA590000EBC00101EB00103968B0FB76
:1044C000F1FA6420BAFBF0F004012009642101FB39
:1044D00010A8286800F0806078B1322000EBC80096
:1044E000B0FBF1F000F00F080120B0EBD80F01D1C4
:1044F00010340BE044EA080408E0322000EB081016
:104500006421B0FBF1F000F01F0004446C6108B0BE
:10451000BDE8F087C1FFFFFB001C014000280140FF
:10452000002001400024014001460869C0F3080052
:104530007047C1F30802026170474FF416510160E1
:10454000002141608160C16006210161002141615B
:104550008161704710B513488079072809D1124846
:10456000FFF7E2FF00F07F001049114A12688854FB
:104570000AE00C488079082806D10B48FFF7D4FFE1
:104580000A490B4A1268885409480068401C0849C7
:10459000086008460068B0F5007F01D1002008607F
:1045A00010BD00007C010020002801406453002061
:1045B000080100200146CAB20B1243EA02207047EC
:1045C000810001F14021D1F8001801F4007171B1AE
:1045D000810001F14021D1F8001841F2FF12114091
:1045E00041F49852810001F14021C1F80028704740
:1045F000810001F14021D1F8001801F4005171B19E
:10460000810001F14021D1F8001841F2FF12114060
:1046100041F44452810001F14021C1F80028704763
:10462000810001F14021D1F8001841F2DF12114060
:1046300041F48852810001F14021C1F800287047FF
:10464000F0B5561C7510084E06EB41042B4607E0EA
:1046500034F8047B20F8017B401C044E30605B1E64
:10466000002BF5D1F0BD0000004C004034020020CA
:10467000F0B5144604F1010C4FEA6C07DFF82CC0CA
:104680000CEB41033D460EE00678401C90F800C05C
:1046900046EA0C2223F8022B9B1C401CDFF810C0BA
:1046A000CCF800006D1E002DEED1F0BD004C004096
:1046B0003802002008B50020009015E191480088DC
:1046C000C0F30320904908700846007800287DD187
:1046D0008E4800688E4908800846008800F44040F3
:1046E0008C4908808A48008800F440608849088026
:1046F000864909684DF6FF5201EA020080F4006025
:1047000080F4004040F48851804A11607D48008860
:1047100000F4805080BB1046006840F2FF11084052
:104720001146086000F022FA784909684DF6FF52F8
:1047300001EA02007649098801F4806109B180F438
:1047400080607349098801F4006109B180F4006058
:104750007049098801F4804109B180F480406D49B5
:10476000098801F4004109B180F4004081B241F4AC
:104770008851664A116008BDFFE76448006880B24E
:104780000090BDF8000000F0100090B35F48006892
:1047900041F2FF0108405D49086000F06DFA5B4995
:1047A00009684DF6FF5201EA02005949098801F4EF
:1047B000806109B180F480605549098801F4006185
:1047C00009B180F400605349098800E049E001F430
:1047D000804109B180F480404E49098801F40041CC
:1047E00009B180F4004081B241F48851474A116018
:1047F000C1E7FFE7BDF8000000F48070002873D027
:104800004248006841F2FF0108404049086000F05A
:10481000E7F93E4909684DF6FF5201EA02003C49BA
:10482000098801F4806109B180F480603849098801
:1048300001F4006109B180F400603649098801F48F
:10484000804109B180F480403249098801F4004177
:1048500009B180F4004081B241F488512B4A1160C3
:1048600089E729480078800000F14020D0F800084E
:1048700080B20090BDF8000000F48070B8B122480A
:104880000078800000F14020D0F8000841F2FF01DC
:1048900008401D490978890001F14021C1F800084C
:1048A00019490978491E1C4A52F821008047BDF871
:1048B000000000F48050B8B113480078800000F187
:1048C0004020D0F8000840F2FF1108400E49097856
:1048D000890001F14021C1F800080B490978491EFF
:1048E0000E4A52F82100804708484430006880B2E0
:1048F0000449088000F0400000287FF4DFAE00BFCC
:1049000039E70000340100201C020020004800406C
:1049100030020020320200205C0100204001002013
:1049200010B500F039F810BD10B54FF48020FDF738
:1049300015F910BD01460648006880B200EBC100C1
:10494000001D400000F14020B0F8000C80B270471C
:104950004848004001460748006880B200EBC100AB
:10496000801D400000F14020B0F8000CC0F30900A9
:10497000704700004848004001460648006880B281
:1049800000EBC100400000F14020B0F8000C80B204
:10499000704700004848004010B588B06B48006878
:1049A0006B4908800846008800F040006949098882
:1049B000084008B1FFF77EFE6548008800F004005B
:1049C00064490988084048B14FF6FB705F490860A8
:1049D0006149086880476049486880475C480088AA
:1049E00000F020005B490988084018B14FF6DF70DD
:1049F000564908605648008800F01000554909885B
:104A0000084030B14FF6EF70504908600020FEF7C3
:104A100079F94F48008800F008004E49098808409D
:104A200060B14E48007810B1FEF708FE02E00220A7
:104A3000FEF768F94FF6F77044490860444800886B
:104A400000F0020043490988084050B14FF6FD705C
:104A50003E49086042480078401C41490870FEF712
:104A6000CBF93B48008800F001003A49098808402A
:104A7000002868D04FF6FE7034490860334808308B
:104A8000006800F40040002856D036480068401CFA
:104A90003449086008460068032850D92B48001F95
:104AA000006800F40060002849D12848001F006811
:104AB00080B22D490860002408E0A00000F14020E9
:104AC000D0F8000880B24DF82400641C082CF4D300
:104AD0002548006840F48070234908600846006853
:104AE00080B21A49091F08601F48006820F48070CE
:104AF0001D4908600846006880B21449091F086013
:104B000000BF1248006800F004000028F9D04FF6FA
:104B1000FB700E490860002408E05DF8240081B2B3
:104B2000A00000F14020C0F80018641C082CF4D349
:104B300000200C49086002E000200A4908600720B4
:104B4000FEF7E0F800BF08B010BD00004448004088
:104B5000340100202A0200208801002010020020D9
:104B600036010020380100203C01002010B5184813
:104B70000068047A022C01D0042C05D1FCF78AFDD0
:104B800013480068047A1CE0062C19D1104800680C
:104B9000407805280ED10E480068007800F07F00AC
:104BA00040B90B490968C87800F0CCF80949096890
:104BB000086A80470849096888688047082400E037
:104BC0000824034909680C7200F032F810BD000097
:104BD000200200202C020020240200207047000048
:104BE00010B511480068047A022C01D0042C01D1C0
:104BF000082412E0032C01D0052C05D1FCF7ACFDF4
:104C000009480068047A08E0072C05D107490968BB
:104C1000C8688047082400E00824034909680C722A
:104C200000F006F810BD0000200200202402002041
:104C300010B50D4890F82C10002000F0B9F80B4882
:104C40000068007A082805D1C001094908800001E0
:104C50000849088005480068007A092801D1012028
:104C600010BD0020FCE70000880100202002002089
:104C7000300200203202002038B501242A480068A2
:104C800080B2001D400000F14020B0F8000C80B25E
:104C9000264901EB4000009025480068007A092869
:104CA00032D0009800782249096808700098401CAA
:104CB0000090009800781E49096848700098401CD0
:104CC0000090009800EB44000090009931F8020B2E
:104CD0000091FFF76FFC164909684880009800EBC7
:104CE00044000090009931F8020B0091FFF762FC3C
:104CF0000F4909688880009800EB440000900098F4
:104D000000880B490968C8800120094909680872B0
:104D100007480068C08810B9FDF764FD01E0FCF7A2
:104D20007BFDFFF785FF38BD48480040004C004040
:104D3000200200204FF6F8710140014A11607047CF
:104D40004848004010B501460F4B1A78002013E088
:104D500003069B0D03F14023D3F8003841F2FF1402
:104D6000234043F48853C4B223430406A40D04F142
:104D70004024C4F80038401C9042E9D341F080033D
:104D8000024C236010BD0000840100205048004008
:104D90004A105300054A126892B202EBC002121D7B
:104DA000520002F14022C2F8003C704748480040DF
:104DB00010B502460F48006880B200EBC200801DAB
:104DC0000D4C04EB40033E290BDD481101F01F049C
:104DD0000CB9441EA0B24FF4004444EA80241C6085
:104DE00007E0481001F001040CB1441CA0B2840299
:104DF0001C6010BD48480040004C0040820002F199
:104E00004022D2F8002841F6FF5302EA030181F460
:104E1000806181F4006141F48853820002F14022F4
:104E2000C2F80038704700004A105300054A126863
:104E300092B202EBC002520002F14022C2F8003CE2
:104E40007047000048480040054A126892B202EBE1
:104E5000C002921C520002F14022C2F8001C7047AE
:104E600048480040820002F14022D2F800284DF26A
:104E7000FF1302EA030181F4804181F4004141F40F
:104E80008853820002F14022C2F800387047820045
:104E900002F14022D2F8002841F23F131A400A439F
:104EA000830003F14023C3F800287047002006491F
:104EB00008607F2005490880084600880249091FCC
:104EC0000860002070470000444800402A0200208B
:104ED0002DE9F04104460E46002504F07F00FFF75F
:104EE00039FD054604F07F00FFF724FD07462A46FA
:104EF00039463046FFF7A4FB2846BDE8F0810000A4
:104F000070B505460E4600240BE0295D0648FFF704
:104F100010FB00BF80210448FFF764FA0028F9D095
:104F2000641CB442F1D370BD0028014000BFFEE70D
:104F300070B504460025212C08D11248006800787D
:104F400000F07F0021280ED10F4D0CE0202C0AD15B
:104F50000C480068007800F07F00212800D10B4D3C
:104F600020200B4908700DB9022070BD054800686B
:104F7000856100210348006841820020A847002085
:104F8000F3E7000020020020BD4F00085151000847
:104F90007801002010B5044602492046FEF7D8F9F2
:104FA00010BD0000E401002010B50446024920466F
:104FB000FEF7CEF910BD0000DC010020014629B942
:104FC0000820034A12681082002070470148FCE75D
:104FD000200200207C01002070B5054606480068CC
:104FE000C478042C01DD002070BD044800EBC4012E
:104FF0002846FEF7ADF9F7E720020020EC0100207B
:105000000246002901DD02207047012A01DD02204D
:10501000FAE70020F8E70000014608480068007839
:1050200000F07F00212807D1022901D1002070471C
:10503000222901D10020FAE70220F8E7200200200F
:1050400010B5002035490968887234490968C8726A
:105050003348C0793149096848720020FFF76AFE79
:1050600040210020FFF713FF4FF480410020FDF79F
:10507000D5FF40210020FFF78BFE80210020FFF7A5
:10508000D3FE0020FFF7CCFA264890F82C10002021
:10509000FFF78EFE0020FFF7B1FE00210120FFF791
:1050A000F6FEC0210120FFF7BFFE4FF400410120B2
:1050B000FDF7B4FF00210120FDF794FFC02102207D
:1050C000FFF7E5FE4FF480710220FFF7ADFE0021EF
:1050D0000220FDF787FF4FF400410220FDF79EFFFD
:1050E00000210320FFF7D3FE4FF488710320FFF760
:1050F0004FFE40210320FFF75BFE4FF44061032089
:10510000FDF770FF00210320FDF788FF0020FFF767
:1051100019FE01200449086010BD00002002002093
:10512000E6070408880100200C0200200348817A69
:1051300011B10521024A116070470000C4550020DA
:105140000C02002004200149086070470C02002076
:10515000014629B90820034A1268108200207047CE
:105160000148FCE7200200207C01002010B5054822
:105170000078202804D1FFF78FF80020014908703B
:1051800010BD0000780100207047000010B500201D
:10519000084909688872FDF7C1FBFFF787FE0648DA
:1051A000006840F40050044908600020034908608A
:1051B00010BD000020020020404800400C020020EA
:1051C00000B58FB01648FCF723F901A8FCF750FA98
:1051D0001448019014480290182004901020039065
:1051E00000200590802006904000079080000890E5
:1051F000002009900B904FF400500A9001A9084834
:10520000FCF7FCF9012206494420FCF729FA0122A7
:10521000510204482C38FEF7C7FA0FB000BD000059
:10522000500002402C3000401853002000B587B0D9
:1052300001A8FCF793FD202001900220029001209C
:1052400004900320069001A90248FCF737FD07B03F
:1052500000BD000000C4024000B593B008A8FEF7EE
:1052600027FB77200A90002008900B90099008A94E
:105270000D48FEF72DFB6846FEF710FBC02000909E
:10528000042001900020039004900690694606488F
:10529000FEF794FA04210448FEF773FA012102484C
:1052A000FEF764FA13B000BD0030004010B54FF4B3
:1052B0002060FDF7B9FB0121C802FDF7DFFB0121EA
:1052C0000220FDF7BBFB01210846FDF7F3FB01219E
:1052D0008020FDF7C3FB10BD10B518211648FCF760
:1052E000C5F901211548FEF754FA0122510213486D
:1052F000FEF75AFA01211048FCF766F900BF0E4983
:1053000050394FF40030FCF76EF90028F7D00A4905
:1053100050394FF40030FCF76EF800210648FCF7D6
:1053200053F900210548FEF734FA00224FF40071CA
:105330000248FEF739FA10BD50000240003000402C
:1053400070B52DED048B06460C4615463046FBF72E
:10535000D2F941EC190B9FED250B53EC102BFBF709
:10536000D8F841EC180BFBF7F2F9C6B22046FBF770
:10537000C2F941EC190B9FED1D0B53EC102BFBF701
:10538000C8F841EC180BFBF7E2F9C4B22846FBF76A
:10539000B2F941EC190B9FED150B53EC102BFBF7F9
:1053A000B8F841EC180BFBF7D2F9C5B2200440EA7B
:1053B000062028430F490860002011E0C0F11702C1
:1053C000012191400B4A1268114021B14E210A4A35
:1053D00022F8101003E02A21074A22F81010401C7E
:1053E0001828EBDBBDEC048B70BD00000000000052
:1053F0000000D03F640000201853002070B5044620
:10540000002508E00648007808B1012070BD64203E
:105410002EF00AF96D1CA542F4DB0020F6E700002F
:10542000320000200FB4054B10B503A9044A0298BE
:1054300002F04CF910BC5DF814FB0000651F010878
:105440003C0200200FB4084B10B504A902AA03982F
:1054500002F03CF9044602A9002002F0E1F92046DE
:1054600010BC5DF814FB00002178000803B401981B
:105470004100009850EAC12018BF04204A0D18BF0F
:1054800040F0010040F2FF72B2EB515F08BF40F004
:105490000200012808BF052002B07047004870478D
:1054A0004C0200200000000010B52F499FED2C1B7E
:1054B0002DED020B84B0059820F000408842D8BF43
:1054C0009DED040B2DDD2949884209D1049840B98E
:1054D0004FF0010001F0C8FF01F086FF06B010BDDB
:1054E00005DB9DED040B01F06BFF06B010BD6846B7
:1054F0009DED040B01F064FB10F0030004BF9DED73
:10550000021B9DED000B0CD001280ED09DED021B5F
:105510009DED000B022817D0012001F0A1FE06B07E
:1055200010BD01F069FD06B010BD9DED021B9DEDA3
:10553000000B012001F094FE51EC100B81F00041B2
:1055400006B041EC100B10BD01F056FD51EC100BF4
:1055500081F0004106B041EC100B10BD00000000CE
:105560000000000000000000FB21E93F0000F07F88
:1055700070B52DED020B2DED0A8B82B00D98C40F86
:1055800020F00045AE48854248D3AE48854219D345
:105590000C99C5F31300084309D09DED0C0B02B024
:1055A000BDEC0A8B02B0BDE8704001F009BF002CD1
:1055B00014BF9FEDA50B9DED0C0B02B0BDEC0A8B4B
:1055C00002B070BD9FEDA20B53EC102B9DED0C0BA8
:1055D00051EC100BFBF700F90AD2022001F044FF56
:1055E00002B0BDEC0A8B02B0BDE8704001F00CBF08
:1055F0009FED990B53EC102B9DED0C0B51EC100B08
:10560000FBF7D2F80AD2022001F02EFF02B0BDEC67
:105610000A8B02B0BDE8704001F006BF90489FEDD4
:1056200092BBA8425CD29248854219D291487844F4
:1056300000EBC40090ED000B53EC102B9DED0C0B18
:1056400051EC100BFAF75FFF41EC1A0B8A487844D3
:1056500000EBC40090ED009BC4F10100041B36E098
:105660009FED870B53EC102B9DED0C0B51EC100BA9
:10567000FAF74FFF41EC100B8348784400EBC4006D
:1056800090ED001B51EC100B53EC112BFAF79AFE26
:10569000FBF73EF80446FBF71DF841EC180B9FEDB5
:1056A0007C0B53EC102BFAF734FF9DED0C1B53ECE5
:1056B000112BFAF72BFF41EC1A0B9FED770B51ECF6
:1056C000180B53EC102BFAF724FF41EC190B51EC9B
:1056D0001A0B53EC192BFAF716FFCDE90C011BE05E
:1056E0006F48854217D29FED700B53EC102B9DED48
:1056F0000C0B51EC100BFAF765FE53EC1B2BFBF770
:105700006BF808D29DED0C0B53EC1B2B51EC100BDE
:10571000FAF758FE6EE000249DED0C0B53EC102BB5
:1057200051EC100BFAF7F5FE41EC180B604805211F
:10573000B0EE480AF0EE680A784401F015FD53EC2B
:10574000182B51EC100BFAF7E4FE9DED0C1B53ECFB
:10575000112BFAF7DBFE41EC180B9FED570B5CB3F6
:1057600053EC182B51EC100BFAF7CDFE9DED0C0B02
:1057700041EC1C0B53EC182B51EC100BFAF7C9FE43
:1057800053EC1C2BFAF737FF53EC192BFAF7BEFE3C
:1057900053EC1A2BFAF7B7FE53EC1B2BFAF7B6FEB5
:1057A000CDE900016FF47F70844226DB01EB0450E9
:1057B00001909DED000B00E753EC102B51EC180B02
:1057C000FAF7A1FE9DED0C0B41EC190B53EC182BD5
:1057D00051EC100BFAF79DFE53EC192BFAF70BFF67
:1057E0009DED0C1B53EC112BFAF78DFE53EC1B2B8C
:1057F000FAF78CFE41EC100BDFE608464FF07A51C9
:1058000001EB04519FED2E0B084453EC102B01903B
:105810009DED000B51EC100BFAF77BFE0D4645ECAD
:10582000100B044651EC100BFFF720FE042808BFB4
:1058300001F0FAFD45EC104BBFE60000000000004F
:10584000422E86400000F07F0000000000000000B3
:10585000EF39FAFE422E864051302DD5104987C0CF
:10586000422ED63F00000000000000000000F03F84
:10587000B2A2F03F66B2030056B20300000000007F
:10588000FE822B654715F73F0AB2030000000000B7
:105890000000E0FE422EE63F763C7935EF39EA3DE6
:1058A0000000303E000000009C7500883CE4377E1C
:1058B0007CB1030000000000000000000000004078
:1058C00000000000000070012DED020B019820F097
:1058D000004001909DED000B02B0704700000000F9
:1058E0002DE9F0412DED020B9FED3D0B2DED028BCF
:1058F0009FED3D8BDDE90254C4F30A50A0F2FF3660
:10590000142E37DA002E18DA53EC102B9DED020B13
:1059100051EC100BFAF756FD53EC182BFAF75CFF1D
:1059200057D2002CA4BF0024254652DA24F00040B0
:10593000284318BF2E4C4CD01AE02E4820FA06F708
:1059400004EA070028431FD053EC102B9DED020BF7
:1059500051EC100BFAF736FD53EC182BFAF73CFF1D
:1059600037D2002C03DA4FF48010F0400444BC43DB
:1059700000252EE0332E07DCA6F114004FF0FF3196
:1059800021FA00F73D4206D19DED020BBDEC028BE2
:1059900002B0BDE8F08153EC102B9DED020B51ECF1
:1059A000100BFAF7B3FD53EC182BFAF715FF10D2D2
:1059B000002C0DDA142E08BF641C09D0C6F1340087
:1059C000012101FA00F02844A84238BF641C0546B2
:1059D000BD43CDE902549DED020BD7E70000000066
:1059E0009C7500883CE4377E000000000000000049
:1059F0000000F0BFFFFF0F0070B5D94B00242DED64
:105A0000020B2DED108BDDE91010984205DA20F025
:105A100000429A4201D809D141B19DED100BBDEC75
:105A2000108B02B0BDE8704001F0CABCB0F5801F19
:105A300026DA11430BD0002813DA012001F014FDFF
:105A4000BDEC108B02B0BDE8704001F0CDBC02206F
:105A500001F00AFD01F09CFC51EC100B81F00041BB
:105A60009EE06FF035049FEDC00B53EC102B9DEDC5
:105A7000100B51EC100BFAF74CFDCDE91001084664
:105A800004EB2051C0F31304B948A1F2FF312044C4
:105A900000F4801080F07F6282F04052224301EBDC
:105AA00020559FEDB50B119253EC102B9DED100B73
:105AB00051EC100BFAF727FD41EC180BA01CC0F3BA
:105AC00013009FEDAFDB9FEDB0EBB14E7E4403289A
:105AD0006CD296ED000B51EC180B53EC102BFAF72F
